:100000000C942A000C943F000C943F000C943F0089
:100010000C943F000C943F000C943F000C943F0064
:100020000C943F000C943F000C943F000C943F0054
:100030000C943F000C943F000C943F000C943F0044
:100040000C943F000C943F000C943F000C943F0034
:100050000C943F0011241FBECFE5D8E0DEBFCDBF1A
:1000600010E0A0E6B0E0E0EDFAE002C005900D92ED
:10007000A838B107D9F70E9406020C9466050C94C3
:100080000000CF93DF930F92CDB7DEB76AE00E94F6
:1000900062029983805D0E9485018981805D0F9055
:1000A000DF91CF910C948501623041F180F46111B0
:1000B00014C021E030E0B90101C0660F8A95EAF76B
:1000C000862F9AB3413031F4892B8ABB089563306F
:1000D00031F1089580958923F8CF21E030E0B9010E
:1000E00001C0660F8A95EAF7862F97B3413019F45D
:1000F000892B87BB089580958923FBCF21E030E0D1
:10010000B90101C0660F8A95EAF7862F94B3413092
:1001100019F4892B84BB089580958923FBCF21E0B6
:1001200030E0B90101C0660F8A95EAF7862F91B3D6
:10013000413019F4892B81BB089580958923FBCF29
:10014000823051F020F4811105C06ABB08958330DC
:1001500029F0089567BB089564BB089561BB0895B5
:10016000623041F180F4611114C021E030E0B90146
:1001700001C0660F8A95EAF7862F9BB3413031F4B0
:10018000892B8BBB0895633031F1089580958923C5
:10019000F8CF21E030E0B90101C0660F8A95EAF797
:1001A000862F98B3413019F4892B88BB0895809528
:1001B0008923FBCF21E030E0B90101C0660F8A95A9
:1001C000EAF7862F95B3413019F4892B85BB089542
:1001D00080958923FBCF21E030E0B90101C0660F93
:1001E0008A95EAF7862F92B3413019F4892B82BBA6
:1001F000089580958923FBCF823051F020F481113E
:1002000005C06BBB0895833029F0089568BB08953D
:1002100065BB089562BB0895623089F050F46111A6
:100220000CC099B321E001C0220F8A95EAF792230E
:1002300002C0633031F0892F089596B3F3CF93B3A2
:10024000F1CF90B3EFCF823059F020F4811106C086
:1002500099B302C0833031F0892F089596B3FCCF53
:1002600093B3FACF90B3F8CF6230C1F058F4611174
:100270000CC09BB321E001C0220F8A95EAF79227B8
:100280009BBB0895633099F0089598B321E001C0B5
:10029000220F8A95EAF7922798BB089595B321E03B
:1002A00001C0220F8A95EAF7922795BB089592B371
:1002B00021E001C0220F8A95EAF7922792BB0895A8
:1002C000BD98BC98BF98BE9A6E9A6C9808958FB9E5
:1002D000779BFECF8FB1089583E389B910BC80B5B9
:1002E0008F7B80BD80B58F7E80BD80B58F7D80BDCA
:1002F00080B5877F80BD80B5826080BD80B5846019
:1003000080BD5298549A539A08955D9BFECF8CB944
:1003100008955F9BFECF8CB1089580E090E0089532
:10032000CF93DF9300D00F92CDB7DEB789839A8346
:100330001B82E981FA818B81E80FF11D8081811197
:1003400008C08DE00F900F900F90DF91CF910C942B
:1003500085010E9485018B818F5F8B83EACF0F938C
:100360001F93CF93DF9300D000D000D00F92CDB772
:10037000DEB79F938F9384E890E09F938F938E01D5
:100380000F5F1F4F1F930F930E946E02C8010E94C0
:1003900090010F900F900F900F900F900F90279655
:1003A0000FB6F894DEBF0FBECDBFDF91CF911F9186
:1003B0000F9108950F931F93CF93DF9300D00F9267
:1003C000CDB7DEB78C010E948901F80180831B82C2
:1003D0008D3069F4F8018B81E80FF11D10820F90C8
:1003E0000F900F90DF91CF911F910F910895FB8196
:1003F000FF5FFB838F2F800F912F911D89839A833D
:100400000E948901E981FA818083E2CFCDB7DEB70E
:1004100028970FB6F894DEBF0FBECDBFCE01019670
:100420000E946C010E94600180E690E00E949001B1
:1004300080E00E9467018A3AD9F780E00E94670154
:100440008B8380E00E9467018C8380E00E946701BB
:100450008D8380E00E9467018E8380E00E946701A7
:100460008F8380E00E946701888781E790E00E9487
:1004700090018B810E9441008FE20E9485018C8156
:100480000E9441008FE20E94850188E790E00E946F
:1004900090018D810E9441008BE790E00E949001C5
:1004A0008E810E9441008AE30E9485018F810E9413
:1004B00041008AE30E94850188850E9441008EE602
:1004C00090E0B4CF992778E0880F991F961708F02D
:1004D000961B881F7A95C9F780950895AEE0B0E025
:1004E000E4E7F2E00C943F0586E08C832B893C899D
:1004F00029833A838FEF9FE78D839E83AE01495E08
:100500005F4F6D897E89CE0101960E949202EF8134
:10051000F8852B893C89E20FF31F10822E96E2E0CA
:100520000C945B05ABE0B0E0E8E9F2E00C94320536
:100530006C017B018A01FC0116821782838181FF95
:10054000DFC13AE0532EF6012381F70123FD8591A7
:1005500023FF81917F01811509F437C1853239F478
:1005600023FD959123FF91917F01953229F4B601E6
:1005700090E00E949904E7CF30E0912C612C712C1F
:10058000F0E27F1640F59B32D9F058F49032D1F06A
:100590009332F1F09E3291F576FC17C1689476F8AB
:1005A00006C09D3291F09033C1F4689470F8F70161
:1005B00023FD959123FF91917F019111E1CF28C0F7
:1005C000689471F8689472F8F2CF689473F8EFCF7A
:1005D000689474F8ECCF77FC1BC080ED890F8A30EB
:1005E000C8F676FE05C0959C800D1124982EDFCFAD
:1005F000659C800D1124682E7F2AD9CF9C3619F472
:10060000689477F8D4CF9C3409F445C0983679F2D1
:10061000892F8F7D8554833008F43FC0933609F4C9
:1006200061C0933709F46BC0933509F477C09436F1
:1006300019F0993609F0A4C0F80177FE9AC06191CB
:100640007191819191918F01272D2F76822E97FFA5
:1006500004C00E942705689487F82AE030E05E0114
:100660004FEFA41AB40AA5010E94C904782E7A1883
:1006700086FECFC0882D8E7F791408F0C9C084FE15
:100680001DC182FC11C12EEE8222B92C882D8678E4
:1006900009F4CBC00EC131E08ACF311501F1085FFA
:1006A0001F4F8FE3898321E0822E912C5E012FEF73
:1006B000A21AB20AE89477F873FC03C08614910476
:1006C000F0F18114910409F041C0611409F43BCFA9
:1006D000B60180E290E00E9499046A94F6CF0C5F24
:1006E0001F4FDFCFF801808189830E5F1F4F91E09C
:1006F000892E912C5E01FFEFAF1ABF0ADBCFF80104
:10070000A190B1908F01692D70E076FC02C06FEF6F
:100710007FEFC5010E948E044C01CCCFF801A1905F
:10072000B1908F01692D70E076FC02C06FEF7FEF12
:10073000C5010E9483044C01689477F8BDCFB601CF
:1007400080E290E00E9499046A94B8CFF50177FCAA
:10075000859177FE81915F01B60190E00E94990436
:1007600081E0611001C080E0681AF1E08F1A910801
:10077000A8CF61917191872F880F880B982F63CF35
:100780009537C9F4872CE89484F82AE030E0F80122
:1007900087FE39C061917191819191918F015E01C4
:1007A000FFEFAF1ABF0AA5010E94C904782E7A187C
:1007B000E89487F85DCF872D897F882E903799F050
:1007C00058F49835A9F09F36D9F0F60186819781C3
:1007D0002B96EFE00C944E059837B9F774FC05C0E2
:1007E00020E130E0D4CF689484F8689482F8F8CFA0
:1007F00074FE03C0E72DE6608E2E20E132E0C7CF05
:1008000028E030E0C4CF6191719180E090E0C6CFE4
:10081000882EB72C84FE3ACFFE01E70DF11D8081B2
:10082000803309F044C049EE842283FC0EC080FE70
:1008300051C0972CB61418F4960C9B18B62C862D24
:100840008B196B1408F480E0B80EB61408F044C09D
:100850006B1884FE43C0B60180E390E00E949904C7
:1008600082FE09C088E590E081FC02C088E790E044
:10087000B6010E9499047914E0F15E018FEFA81A85
:10088000B80A7A9482E0882E912C8C0E9D1E870CDB
:10089000911CF40182914F01B60190E00E949904ED
:1008A0008A149B04B1F711CFB92C882EB5CF82FCE6
:1008B00002C0B394BACFB394B394B7CFB92C882EF7
:1008C000E5CEB60180E290E00E949904A394A614BC
:1008D000C0F3B5CFAB2CFBCF612CBBCF882D867876
:1008E00051F280E281FC8BE287FC8DE2B60190E060
:1008F000C0CFB60180E390E00E9499049A94BBCFE8
:100900008FEF9FEF65CFFC010590615070400110A3
:10091000D8F7809590958E0F9F1F0895FC01615028
:10092000704001900110D8F7809590958E0F9F1F11
:1009300008950F931F93CF93DF93182F092FEB0187
:100940008B8181FD09C00FEF1FEF812F902FDF9169
:10095000CF911F910F91089582FF14C02E813F8186
:100960008C819D81281739073CF4E881F981CF01FA
:1009700001968883998310838E819F8101968E834F
:100980009F83E3CFE885F985812F0995892BA1F312
:10099000DACFFA01AA27283051F1203181F1E89409
:1009A0006F936E7F6E5F7F4F8F4F9F4FAF4FB1E062
:1009B0003ED0B4E03CD0670F781F891F9A1FA11D5D
:1009C000680F791F8A1F911DA11D6A0F711D811D5E
:1009D000911DA11D20D009F468943F912AE0269F23
:1009E00011243019305D3193DEF6CF010895462F82
:1009F0004770405D4193B3E00FD0C9F7F6CF462F63
:100A00004F70405D4A3318F0495D31FD40524193CB
:100A100002D0A9F7EACFB4E0A69597958795779588
:100A20006795BA95C9F700976105710508959B010F
:100A3000AC010A2E06945795479537952795BA9598
:100A4000C9F7620F731F841F951FA01D089590950D
:100A50008095709561957F4F8F4F9F4F08952F928E
:100A60003F924F925F926F927F928F929F92AF923E
:100A7000BF92CF92DF92EF92FF920F931F93CF938B
:100A8000DF93CDB7DEB7CA1BDB0B0FB6F894DEBF22
:100A90000FBECDBF09942A88398848885F846E8448
:100AA0007D848C849B84AA84B984C884DF80EE8092
:100AB000FD800C811B81AA81B981CE0FD11D0FB69B
:100AC000F894DEBF0FBECDBFED010895F894FFCFBF
:100AD00041546D65676133322052656164790D0A56
:100AE00000446174653A2000323000202054696D62
:080AF000653A200025640000B6
:00000001FF
